:020000040800F2
:100000000080012031470008B5460008B7460008C7
:10001000B9460008BB460008BD46000800000000C5
:10002000000000000000000000000000BF460008C3
:10003000C146000800000000C3460008C54600088D
:100040008147000881470008814700088147000870
:100050008147000881470008814700088147000860
:100060008147000881470008814700088147000850
:100070008147000881470008814700088147000840
:100080008147000881470008814700088147000830
:100090008147000881470008814700088147000820
:1000A0008147000881470008814700088147000810
:1000B0008147000881470008814700088147000800
:1000C00081470008814700088147000881470008F0
:1000D00081470008C9460008814700088147000899
:1000E00081470008814700088147000881470008D0
:1000F00081470008814700088147000881470008C0
:1001000081470008814700088147000881470008AF
:100110008147000881470008DD4600088147000844
:10012000814700088147000881470008814700088F
:10013000814700088147000881470008814700087F
:10014000814700088147000881470008814700086F
:10015000814700088147000881470008814700085F
:10016000814700088147000881470008814700084F
:1001700081470008814700080000000000000000DF
:080180008147000881470008D7
:1001900010B5054C237833B9044B13B10448AFF3C1
:1001A00000800123237010BD6802002000000000C1
:1001B000BC68000808B5034B1BB103490348AFF303
:1001C000008008BD000000006C020020BC68000830
:1001D000034613F8012B002AFBD1181A0138704787
:1001E00001F0FF01102A2BDB10F0070F08D010F8E8
:1001F000013B013A8B422DD010F0070F42B3F6D1EC
:10020000F0B441EA012141EA014122F007047FF004
:1002100000070023F0E80256083C85EA010586EA5B
:10022000010685FA47F5A3FA87F586FA47F6A5FA97
:1002300087F68EB9EED1F0BC01F0FF0102F00702A3
:1002400032B110F8013B013A83EA010313B1F8D14E
:100250000020704701387047002D06BF354603382F
:10026000073815F0010F07D1013015F4807F02BF68
:10027000013015F4C03F0130F0BC0138704700BFB9
:1002800081F0004102E000BF83F0004330B54FEA47
:1002900041044FEA430594EA050F08BF90EA020FB4
:1002A0001FBF54EA000C55EA020C7FEA645C7FEA47
:1002B000655C00F0E2804FEA5454D4EB5555B8BF6A
:1002C0006D420CDD2C4480EA020281EA030382EADB
:1002D000000083EA010180EA020281EA0303362D6D
:1002E00088BF30BD11F0004F4FEA01314FF4801C40
:1002F0004CEA113102D0404261EB410113F0004F52
:100300004FEA03334CEA133302D0524263EB430308
:1003100094EA050F00F0A780A4F10104D5F1200EA6
:100320000DDB02FA0EFC22FA05F2801841F1000101
:1003300003FA0EF2801843FA05F359410EE0A5F1D5
:1003400020050EF1200E012A03FA0EFC28BF4CF006
:10035000020C43FA05F3C01851EBE37101F00045BC
:1003600007D54FF0000EDCF1000C7EEB00006EEBC9
:100370000101B1F5801F1BD3B1F5001F0CD3490853
:100380005FEA30004FEA3C0C04F101044FEA4452AA
:1003900012F5800F80F09A80BCF1004F08BF5FEA31
:1003A000500C50F1000041EB045141EA050130BD11
:1003B0005FEA4C0C404141EB010111F4801FA4F1B4
:1003C0000104E9D191F0000F04BF01460020B1FA09
:1003D00081F308BF2033A3F10B03B3F120020CDA41
:1003E0000C3208DD02F1140CC2F10C0201FA0CF01F
:1003F00021FA02F10CE002F11402D8BFC2F1200C84
:1004000001FA02F120FA0CFCDCBF41EA0C01904039
:10041000E41AA2BF01EB0451294330BD6FEA040482
:100420001F3C1CDA0C340EDC04F11404C4F120026D
:1004300020FA04F001FA02F340EA030021FA04F37F
:1004400045EA030130BDC4F10C04C4F1200220FAD6
:1004500002F001FA04F340EA0300294630BD21FA14
:1004600004F0294630BD94F0000F83F4801306BFDA
:1004700081F480110134013D4EE77FEA645C18BFCE
:100480007FEA655C29D094EA050F08BF90EA020F65
:1004900005D054EA000C04BF1946104630BD91EA5D
:1004A000030F1EBF0021002030BD5FEA545C05D160
:1004B0004000494128BF41F0004130BD14F580049F
:1004C0003CBF01F5801130BD01F0004545F0FE4113
:1004D00041F470014FF0000030BD7FEA645C1ABF48
:1004E000194610467FEA655C1CBF0B46024650EA7F
:1004F000013406BF52EA033591EA030F41F40021AB
:1005000030BD00BF90F0000F04BF0021704730B530
:100510004FF4806404F132044FF000054FF0000105
:1005200050E700BF90F0000F04BF0021704730B5C6
:100530004FF4806404F1320410F0004548BF40429B
:100540004FF000013EE700BF42004FEAE2014FEAF0
:1005500031014FEA02701FBF12F07F4393F07F4FCB
:1005600081F06051704792F0000F14BF93F07F4FFD
:10057000704730B54FF4607401F0004521F0004140
:1005800020E700BF50EA010208BF704730B54FF0C6
:1005900000050AE050EA010208BF704730B511F0CB
:1005A000004502D5404261EB41014FF4806404F103
:1005B00032045FEA915C3FF4DCAE4FF003025FEA85
:1005C000DC0C18BF03325FEADC0C18BF033202EB0D
:1005D000DC02C2F1200300FA03FC20FA02F001FA67
:1005E00003FE40EA0E0021FA02F11444C1E600BF06
:1005F00070B54FF0FF0C4CF4E06C1CEA11541DBFB9
:100600001CEA135594EA0C0F95EA0C0F00F0DEF883
:100610002C4481EA030621EA4C5123EA4C5350EA68
:10062000013518BF52EA033541F4801143F48013B9
:1006300038D0A0FB02CE4FF00005E1FB02E506F04A
:100640000042E0FB03E54FF00006E1FB03569CF09F
:10065000000F18BF4EF0010EA4F1FF04B6F5007FA5
:1006600064F5407404D25FEA4E0E6D4146EB060617
:1006700042EAC62141EA55514FEAC52040EA5E50A0
:100680004FEACE2EB4F1FD0C88BFBCF5E06F1ED84A
:10069000BEF1004F08BF5FEA500E50F1000041EB81
:1006A000045170BD06F0004646EA010140EA02002E
:1006B00081EA0301B4EB5C04C2BFD4EB0C0541EA50
:1006C000045170BD41F480114FF0000E013C00F365
:1006D000AB8014F1360FDEBF002001F0004170BD89
:1006E000C4F10004203C35DA0C341BDC04F11404A2
:1006F000C4F1200500FA05F320FA04F001FA05F22E
:1007000040EA020001F0004221F0004110EBD370FA
:1007100021FA04F642EB06015EEA430E08BF20EA26
:10072000D37070BDC4F10C04C4F1200500FA04F3C9
:1007300020FA05F001FA04F240EA020001F000415B
:1007400010EBD37041F100015EEA430E08BF20EACE
:10075000D37070BDC4F1200500FA05F24EEA020E16
:1007600020FA04F301FA05F243EA020321FA04F045
:1007700001F0004121FA04F220EA020000EBD370FC
:100780005EEA430E08BF20EAD37070BD94F0000FFC
:100790000FD101F00046400041EB010111F4801F30
:1007A00008BF013CF7D041EA060195F0000F18BFE1
:1007B000704703F00046520043EB030313F4801F1D
:1007C00008BF013DF7D043EA0603704794EA0C0FD7
:1007D0000CEA135518BF95EA0C0F0CD050EA4106ED
:1007E00018BF52EA4306D1D181EA030101F000416A
:1007F0004FF0000070BD50EA410606BF1046194692
:1008000052EA430619D094EA0C0F02D150EA01369D
:1008100013D195EA0C0F05D152EA03361CBF1046DE
:1008200019460AD181EA030101F0004141F0FE417D
:1008300041F470014FF0000070BD41F0FE4141F401
:10084000780170BD70B54FF0FF0C4CF4E06C1CEA01
:1008500011541DBF1CEA135594EA0C0F95EA0C0FB6
:1008600000F0A7F8A4EB050481EA030E52EA033571
:100870004FEA013100F088804FEA03334FF0805592
:1008800045EA131343EA12634FEA022245EA1115BF
:1008900045EA10654FEA00260EF000419D4208BF70
:1008A000964244F1FD0404F5407402D25B084FEA1D
:1008B0003202B61A65EB03055B084FEA32024FF4C9
:1008C00080104FF4002CB6EB020E75EB030E22BF26
:1008D000B61A754640EA0C005B084FEA3202B6EBE6
:1008E000020E75EB030E22BFB61A754640EA5C0095
:1008F0005B084FEA3202B6EB020E75EB030E22BF25
:10090000B61A754640EA9C005B084FEA3202B6EB25
:10091000020E75EB030E22BFB61A754640EADC00E4
:1009200055EA060E18D04FEA051545EA16754FEA46
:1009300006164FEAC30343EA52734FEAC2025FEA64
:100940001C1CC0D111F4801F0BD141EA00014FF0F3
:1009500000004FF0004CB6E711F4801F04BF0143C4
:100960000020B4F1FD0C88BFBCF5E06F3FF6AFAEE0
:10097000B5EB030C04BFB6EB020C5FEA500C50F170
:10098000000041EB045170BD0EF0004E4EEA1131F3
:1009900014EB5C04C2BFD4EB0C0541EA045170BDFA
:1009A00041F480114FF0000E013C90E645EA060E3E
:1009B0008DE60CEA135594EA0C0F08BF95EA0C0F6C
:1009C0003FF43BAF94EA0C0F0AD150EA01347FF4B4
:1009D00034AF95EA0C0F7FF425AF104619462CE78B
:1009E00095EA0C0F06D152EA03353FF4FDAE1046EE
:1009F000194622E750EA410618BF52EA43067FF43F
:100A0000C5AE50EA41047FF40DAF52EA43057FF4CE
:100A1000EBAE12E74FF0FF3C06E000BF4FF0010CD9
:100A200002E000BF4FF0010C4DF804CD4FEA410C3D
:100A30007FEA6C5C4FEA430C18BF7FEA6C5C1BD00A
:100A400001B050EA410C0CBF52EA430C91EA030F8B
:100A500002BF90EA020F0020704710F1000F91EAE8
:100A6000030F58BF994208BF90422CBFD8176FEAB6
:100A7000E37040F0010070474FEA410C7FEA6C5C84
:100A800002D150EA013C07D14FEA430C7FEA6C5C8B
:100A9000D6D152EA033CD3D05DF8040B704700BFB7
:100AA0008446104662468C461946634600E000BF05
:100AB00001B5FFF7B7FF002848BF10F1000F01BDD7
:100AC0004DF808EDFFF7F4FF0CBF012000205DF8A2
:100AD00008FB00BF4DF808EDFFF7EAFF34BF012027
:100AE00000205DF808FB00BF4DF808EDFFF7E0FFC0
:100AF00094BF012000205DF808FB00BF4DF808ED11
:100B0000FFF7CEFF94BF012000205DF808FB00BF77
:100B10004DF808EDFFF7C4FF34BF012000205DF859
:100B200008FB00BF4FEA410C7FEA6C5C02D150EA3F
:100B3000013C0AD14FEA430C7FEA6C5C02D152EAD5
:100B4000033C02D14FF0000070474FF001007047A6
:100B50004FEA410212F5001215D211D56FF47873E5
:100B6000B3EB625212D94FEAC12343F0004343EA88
:100B7000505311F0004F23FA02F018BF4042704763
:100B80004FF00000704750EA013005D111F00040ED
:100B900008BF6FF0004070474FF00000704700BF83
:100BA00053B94AB9002908BF00281CBF4FF0FF31D4
:100BB0004FF0FF3000F07AB9ADF1080C6DE904CECA
:100BC00000F006F8DDF804E0DDE9022304B0704728
:100BD0002DE9F0478C460D460446089E002B51D166
:100BE0008A4217466DD9B2FA82FEBEF1000F0BD0D1
:100BF000CEF1200C01FA0EF520FA0CFC02FA0EF7E9
:100C00004CEA050C00FA0EF44FEA174A250CBCFB1F
:100C1000FAF81FFA87F90AFB18CC45EA0C4508FBDD
:100C200009F3AB420AD9ED1908F1FF3280F02381B4
:100C3000AB4240F22081A8F102083D44ED1AA4B273
:100C4000B5FBFAF00AFB105544EA054400FB09F92C
:100C5000A14509D9E41900F1FF3380F00A81A145CB
:100C600040F2078102383C44A4EB090440EA084002
:100C70000021002E61D024FA0EF40023346073604A
:100C8000BDE8F0878B4207D9002E54D0002186E8BA
:100C900021000846BDE8F087B3FA83F1002940F04F
:100CA0008E80AB4202D3824200F2FA80841A65EB56
:100CB00003050120AC46002E3FD086E81010BDE8A9
:100CC000F08712B90127B7FBF2F7B7FA87FEBEF13A
:100CD000000F34D1EB1B3A0C1FFA87FC0121B3FB48
:100CE000F2F8250C02FB183345EA03450CFB08F328
:100CF000AB4207D9ED1908F1FF3002D2AB4200F246
:100D0000D1808046ED1AA3B2B5FBF2F002FB10557C
:100D100043EA05440CFB00FCA44507D9E41900F1A3
:100D2000FF3302D2A44500F2B8801846A4EB0C04AD
:100D300040EA08409DE731463046BDE8F087CEF1F5
:100D4000200405FA0EF307FA0EF720FA04F83A0C1D
:100D500025FA04F448EA0308B4FBF2F14FEA184517
:100D600002FB11441FFA87FC45EA044501FB0CF322
:100D7000AB4200FA0EF409D9ED1901F1FF3080F011
:100D80008A80AB4240F2878002393D44EB1A1FFA59
:100D900088F5B3FBF2F002FB103345EA034500FB94
:100DA0000CF3AB4207D9ED1900F1FF386FD2AB421B
:100DB0006DD902383D44EB1A40EA01418FE7C1F199
:100DC000200722FA07F88B4005FA01F448EA0303EA
:100DD00020FA07FE4FEA134CFD404EEA040EB5FB25
:100DE000FCF94FEA1E440CFB19551FFA83F844EA3C
:100DF000054509FB08F4AC4202FA01F200FA01FAD7
:100E000008D9ED1809F1FF3043D2AC4241D9A9F11C
:100E100002091D442D1B1FFA8EFEB5FBFCF00CFBD6
:100E200010554EEA054400FB08F8A04507D9E41820
:100E300000F1FF3529D2A04527D902381C4440EAE9
:100E40000940A4EB0804A0FB02894C45C6464D4668
:100E500015D312D056B1BAEB0E0364EB050404FAB5
:100E600007F7CB401F43CC40376074600021BDE8DA
:100E7000F0871846F8E69046E0E6C245EAD2B8EBBD
:100E8000020E69EB03050138E4E72846D7E7404640
:100E900091E78146BEE7014678E702383C4445E7E2
:100EA000084608E7A8F102083D442BE7704700BF59
:100EB000F0B52A482A4C2B4B2B4D2C4F002684E8AA
:100EC00049000122E26026616661E6612662EB6C00
:100ED00043F00203EB64EB6C89B003F0020301936F
:100EE000019B05924FF44063039312230493032361
:100EF000069303A904233846079300F0B3FC03A923
:100F0000384600F0AFFCAB6D43F48003AB65AB6DCE
:100F100003F480030293029BAB6B43F48003AB6347
:100F2000AB6B23F48003AB6332460F21212000F02A
:100F3000A3FB212000F0D4FB32460F21222000F039
:100F40009BFB222000F0CCFB204600F04AFF3146FC
:100F5000204601F025F909B0F0BD00BF005800405F
:100F60004803002081267000001002400004004861
:100F7000034B4FF4804153F8200000F0EEBD00BF5A
:100F800000000020FFF794BF10B586B006AC4FF408
:100F90007A7304F8012D029301230A460193014656
:100FA0000094054800F087FF20B1034800F06AFF75
:100FB000FFF77EFF06B010BD480300207FB506AAEC
:100FC000002302F8013D4FF47A73029301238DE868
:100FD0000C000A460146074801F024F820B10548F4
:100FE00000F050FFFFF764FF9DF8170007B05DF8B1
:100FF00004FB00BF480300201FB54FF47A748DE84E
:101000001C000A4601230146064801F00BF804467D
:1010100020B1044800F036FFFFF74AFF204604B035
:1010200010BD00BF4803002010B5074CA3689847C7
:101030006A2807D1054B44F230401C60236898476A
:10104000002010BD012010BD2C00002084020020D3
:1010500010B5074CA36898476A2807D1054B44F29E
:101060003C401C6023689847002010BD012010BD43
:10107000600000208802002010B5074CBE20636885
:101080009847BC2806D1054BBE201C6023689847B2
:10109000002010BD012010BD040000208C020020A3
:1010A000024B1B68BE209B68184700BF8C020020C3
:1010B000034B1B6813B15B6803B11847704700BF4F
:1010C0009002002010B5074CBA2063689847B128F9
:1010D00006D1054BBA201C6023689847002010BD3C
:1010E000012010BD2000002094020020024B1B684C
:1010F000BA209B68184700BF9402002010B5064C28
:10110000064B2360FFF73EFF236800211B68BE20CB
:101110009847002010BD00BF98020020100000205A
:10112000024B1B68BE20DB68184700BF98020020F6
:1011300010B5C4B220212046FFF740FF00F0F802AE
:1011400042F0850220462021BDE81040FFF71CBF79
:1011500010B5C4B220212046FFF730FF00F0F8029E
:1011600042F0850220462021BDE81040FFF70CBF69
:1011700010B50446FFF706FFE0B20F21BDE81040AE
:10118000FFF71CBF2DE9F3415FFA80F8022301AAA3
:10119000B0214046FFF730FF022301AAB6214046A6
:1011A0009DF804609DF80550FFF726FF9DF8057037
:1011B0009DF80440022344EA072401AABA214046CC
:1011C000FFF71AFF27B29DF805309DF8044001AAE9
:1011D00044EA0324A82102234046FFF70DFF9DF8AF
:1011E00005209DF8043043EA02231BB2DB1B07EE07
:1011F000903A76086D08AB1BB8EEE77A07EE903AA6
:1012000024B2F8EEE77AE41B67EE277A07EE104A7D
:10121000B8EEC77A87EE870A07EE906AF8EEE77AAB
:101220009FED0E7A70EE277AB2EE040A67EE807AAE
:10123000F4EEC77AF1EE10FA0DDCF5EE407A9FED90
:10124000087AF1EE10FA48BFF0EE477A87EE800A8E
:1012500002B0BDE8F081F0EE477AF7E700007A448B
:10126000000000002DE9F3415FFA80F801AA022393
:10127000B2214046FFF7C0FE35214046FFF79EFEF3
:1012800006029DF8055006F4407380019DF8046045
:1012900000F440701E43284304230DEB0302C508ED
:1012A000BC214046FFF7A8FE9DF805409DF804705C
:1012B0009DF8073047EA04279DF8064001AA44EA52
:1012C0000324AA2102234046FFF796FE9DF805203D
:1012D0009DF8043043EA02233FB21BB2DB1BF60841
:1012E00007EE903AAB1BB8EEE77A07EE903A24B2DD
:1012F000F8EEE77AE41B67EE277A07EE104AB8EEBD
:10130000C77AC7EE876A07EE906AB8EEE70A36EE4C
:10131000800A02B0BDE8F08173B50024C6B201AD09
:1013200004F12801C9B23046FFF748FE28550134C0
:10133000032CF5D19DF806309DF805201B0443EAE7
:1013400002239DF8042013431A0248BF43F07F4351
:10135000642253434FF4805293FBF2F307EE903A2A
:10136000B8EEE70ADFED027A80EE270A02B070BD20
:101370000000C84210B5C4B21A212046FFF71EFE75
:1013800000F0FE0242F0010220461A21FFF7FCFDA8
:1013900010212046FFF712FE00F08D0242F03202CB
:1013A00020461021BDE81040FFF7EEBDFFF7E2BF79
:1013B00010B50446FFF7E6FDE0B20F21BDE810408E
:1013C000FFF7FCBD10B510210446D420FFF7F6FD51
:1013D00000F003022243D2B21021D420FFF7D4FD43
:1013E0001221D420FFF7EAFD00F0BB0242EA1422EA
:1013F0001221D420BDE81040FFF7C6BD08B510216A
:10140000D420FFF7DBFD102100F00F02BDE80840FB
:10141000D420FFF7B9BD10B515210446D420FFF73D
:10142000CDFD00F0EF020CB142F010021521D420E6
:10143000BDE81040FFF7A8BD10B511210446D42027
:10144000FFF7BCFD00F003022243D2B21121D420E9
:10145000FFF79AFD1221D420FFF7B0FD00F0BB0288
:1014600042EA14221221D420BDE81040FFF78CBDBF
:1014700008B51121D420FFF7A1FD112100F00F02C2
:10148000BDE80840D420FFF77FBD10B51621044603
:10149000D420FFF793FD00F07F020CB142F08002F0
:1014A0001621D420BDE81040FFF76EBD08B5FFF748
:1014B00069FD0F21D420BDE80840FFF77FBDFFF78D
:1014C000F5BF000030B5102185B00546D420FFF7E8
:1014D00075FD0623044602AA2821D420FFF78CFDBF
:1014E0009DF809209DF80830174803EB0223ADF85A
:1014F00000309DF80B209DF80A3003EB0223ADF875
:1015000002309DF80D209DF80C3004F00C0400EB27
:10151000840003EB022390ED007AADF80430002242
:101520003DF9123007EE903AF8EEE77A67EE877AE7
:10153000FDEEE77A17EE903A25F812300132032AD1
:10154000EED105B030BD00BFD868000830B511211C
:1015500085B00446D420FFF731FD0623054602AAD4
:101560002221D420FFF748FD9DF809209DF808307E
:10157000154803EB0223ADF800309DF80B209DF8D1
:101580000A3003EB0223ADF802309DF80D209DF8E0
:101590000C3005F00C0503EB022300EB8500ADF8E1
:1015A000043090ED007A002320463DF9132007EE29
:1015B000902AF8EEE77A013367EE877A032BE0ECA6
:1015C000017AF2D105B030BD0C69000838B50A4B7C
:1015D000054618684FF47A73B0FBF3F000F08CF80E
:1015E000044638B9024629464FF0FF3000F044F86F
:1015F000204638BD012038BD9400002010B50320DE
:1016000000F028F80020FFF7E1FF044618B902F0C7
:101610007FFE204610BD0124FBE70000024A13684C
:1016200001331360704700BF94030020014B18681A
:10163000704700BF9403002038B50446FFF7F6FF5B
:10164000631C054618BF0134FFF7F0FF401B8442BE
:10165000FAD838BD074AD36823F4E0631B041B0C97
:1016600043F0BF63000243F4003300F4E06003433F
:10167000D360704700ED00E0174B30B5DC68C4F371
:101680000224C4F10703251D042B28BF0423062DC3
:101690004FF0010505FA03F303F1FF338CBF033C60
:1016A00000241940A14005FA04F4013C224000281E
:1016B00042EA01024FEA0212AFBF00F1604000F0BF
:1016C0000F00064BD2B2A5BF00F56140D2B21A544A
:1016D00080F8002330BD00BF00ED00E014ED00E015
:1016E0004209012300F01F0003FA00F0014B43F808
:1016F0002200704700E100E00138B0F1807F0AD29B
:10170000064B074A5860F02182F823100020072278
:1017100098601A6070470120704700BF10E000E039
:1017200000ED00E0144B984217D02033984216D0B9
:101730002033984215D02033984214D02033984259
:1017400013D02033984212D02033984211D0203346
:1017500098420CBF072000207047002070470120EE
:10176000704702207047032070470420704705200F
:1017700070470620704700BF0060014038B504463E
:10178000002867D00068344DFFF7CCFF55F82030B3
:10179000002B5FD1204602F0D3FD304B1A68013296
:1017A0001A601B68012B19D12D4B1A6822F0804258
:1017B0001A601A68A1680A431A601A6822F47F0244
:1017C0001A602279012A05D1E1681A68013942EAD2
:1017D00001421A601A6842F000421A60206861698A
:1017E000036823F471430360236902680B43A16912
:1017F0000B43134303600368216A23F00F03036064
:10180000E36902680B43134303608368616AA26A59
:1018100023F45F0383608368013A0B4343EA024386
:1018200083604368226B03F007034360436843EA25
:10183000C203E26A43EA02234360036843F0800381
:101840000360012384F83430FFF76CFF45F8204033
:10185000002038BD012038BD9C020020BC020020C1
:10186000006001402DE9F04F85B00B68DFF8A881DA
:10187000674C01930023019ADA4002D105B0BDE81C
:10188000F08F0126019A9E4012EA060E00F0B18008
:101890004A6822F01007022F16D14FEAD30900EB55
:1018A000890903F0070AD9F820504FEA8A0A4FF055
:1018B0000F0C0CFA0AFC25EA0C0C0D6905FA0AF566
:1018C00045EA0C05C9F820504FEA430C0325D0F82F
:1018D00000B005FA0CF5ED4302F0030A0BEA050B24
:1018E0000AFA0CF9013F49EA0B09012FC0F80090F0
:1018F00011D8876805EA0709CF6807FA0CF747EAA5
:1019000009078760476827EA0609C2F300179F4066
:1019100047EA09074760BAF1030F07D1C76A27EA08
:101920000606C2F3C0079F403E43C662C668354004
:101930008E6806FA0CF63543C560D50059D5D8F83F
:10194000605045F00105C8F86050D8F8605023F0A9
:10195000030606F1804605F0010506F5803603957D
:1019600003F0030C039DB5684FEA8C0C0F2707FAB0
:101970000CF7B0F1904F25EA07073CD0254DA8425F
:101980003BD005F58065A84239D005F58065A842B1
:1019900037D005F58065A84235D005F58065A842A9
:1019A00033D005F58065A84214BF0725062505FA42
:1019B0000CF53D43B56025686FEA0E06D70354BFAA
:1019C00035404EEA050525606568970354BF3540EC
:1019D0004EEA05056560A568D70254BF35404EEA5A
:1019E0000505A560E568920254BF35404EEA05053D
:1019F000E56001333FE70025D9E70125D7E7022558
:101A0000D5E70325D3E70425D1E70525CFE700BFB8
:101A10000004014000040048001002402DE9F74F87
:101A2000474CDFF824A1DFF824B100234FF0010870
:101A30004FF0030931FA03F202D103B0BDE8F08F91
:101A400008FA03F611EA060201926AD007685A0002
:101A500009FA02F24FEAD30C174300EB8C0C076033
:101A6000DCF8207003F0070E3D464FEA8E0E0F277C
:101A700007FA0EFE25EA0E0ECCF820E0D0F808E0BA
:101A8000D2430EEA020EC0F808E0D0F804E0F643B4
:101A90000EEA060EC0F804E0D0F80CE002EA0E02EE
:101AA000C260C26A1640C66223F0030606F1804691
:101AB00006F5803603F0030EB2684FEA8E0E07FA81
:101AC0000EF7B0F1904F02EA070C2CD01D4A90425D
:101AD0002BD002F58062904229D002F580629042BC
:101AE00027D002F58062904225D0504525D0584538
:101AF0000CBF0622072202FA0EF2944511D1B268F9
:101B0000019D22EA0707B7602268ED432A40226060
:101B100062682A406260A2682A40A260E2681540BA
:101B2000E560013386E70022E5E70122E3E70222D0
:101B3000E1E70322DFE70422DDE70522DBE700BF60
:101B40000004014000040048001400480018004848
:101B50000AB18161704781627047436959404161B0
:101B6000704703689A69910744BF00229A629A6994
:101B7000D2075EBF9A6942F001029A61704730B5A0
:101B8000039C05682343640D04F4806444F07F746F
:101B900044F458346868C1F3090144F47F7419436C
:101BA00044F0030441EA024120EA0404214369604D
:101BB00030BD2DE9F041069F0446884616461D4675
:101BC0002268936938EA03030CBF01230023B34260
:101BD00002D00020BDE8F0816B1CF2D0FFF726FD9B
:101BE000C01B854201D3002DEAD1636C43F0200372
:101BF0006364202384F84130002384F8423084F861
:101C000040300120BDE8F081036870B50446986952
:101C100010F010000D46164616D170BD691C14D088
:101C2000FFF704FD801B854200D36DB9636C43F060
:101C300020036364202384F84130002384F8423079
:101C400084F84030012070BD236899698A06E5D583
:101C500010222025DA612046DD61FFF782FF22682D
:101C6000536823F0FF7323F48B3323F4FF7323F0C3
:101C700001035360636C43F00403636484F84150D0
:101C8000DBE770B504460D46164623689B699B0743
:101C900001D5002070BD324629462046FFF7B4FF2B
:101CA000A0B96A1CF1D0FFF7C1FC801B854201D3AB
:101CB000002DEAD1636C43F020036364202384F891
:101CC0004130002384F8423084F84030012070BD58
:101CD000F7B5099E1F46164B0093054614464FF074
:101CE0008073FAB2FFF74BFF324608992846FFF798
:101CF000C8FF10B1012003B0F0BD012F2B680CD13B
:101D0000E4B29C62089B0096002280212846FFF7DF
:101D100050FF003018BF0120EDE7220A9A620899AF
:101D200032462846FFF7ADFF0028E3D12B68E7E7EE
:101D300000200080F7B5099E1F46164B009305460C
:101D400014460023FAB2FFF71AFF324608992846D4
:101D5000FFF797FF10B1012003B0F0BD012F2B68F2
:101D60000CD1E4B29C62089B0096002240212846D8
:101D7000FFF71FFF003018BF0120EDE7220A9A622B
:101D8000089932462846FFF77CFF0028E3D12B68EC
:101D9000E7E700BF0020008070B504460D461646F8
:101DA00023689B699B0601D5002070BD32462946F9
:101DB0002046FFF729FF90B9FFF738FC801B8542CA
:101DC00001D3002DECD1636C43F020036364202326
:101DD00084F84130002384F8423084F840300120F8
:101DE00070BD10B5044600284AD090F8413003F089
:101DF000FF021BB980F8402002F0D4FA242384F8B3
:101E000041302368E1681A6822F001021A606268B2
:101E100022F070621A619A68012922F400429A60E5
:101E2000A26824D142F400429A605A68616942F083
:101E3000007242F400425A60DA6822F40042DA602A
:101E400022690A43A16942EA0122DA60216AE26951
:101E50000A431A601A6842F001021A600020202327
:101E6000606484F84130206384F8420010BD42F47D
:101E7000044202299A6004BF4FF400625A60D4E71A
:101E8000012010BD10B5044698B10268242380F8E3
:101E90004130136823F00103136002F0B9FA002007
:101EA000606484F8400084F84100206384F84200B4
:101EB00010BD012010BD2DE9F04F9B4690F8413038
:101EC00085B0202B04460F460392BDF83CA0DDF8F8
:101ED000408040F0A5800E9B13B1BAF1000F06D1EF
:101EE0004FF400736364012005B0BDE8F08F90F8F3
:101EF0004030012B00F09480012580F84050FFF71E
:101F000095FB1923009006462A464FF400412046CF
:101F1000FFF74FFE81460028E5D1212384F84130A8
:101F2000402384F842300E9B606463626063A4F8CF
:101F30002AA00196CDF800805B46039A39462046D8
:101F4000FFF7C6FE10B184F84090CCE7638D9BB2DA
:101F5000FF2B55D9FF22228500904FF08073394620
:101F60002046FFF70CFE324641462046FFF789FE29
:101F70000028B8D1636A226813F8011B916263627A
:101F8000638D228D013B9BB26385638D013A92B2D2
:101F90009BB22285ABB1A2B9009643468021204670
:101FA000FFF707FE00289ED1638D9BB2FF2B2FD930
:101FB000FF22228500904FF0807339462046FFF7BC
:101FC000DEFD638D9BB2002BCDD1324641462046CB
:101FD000FFF7E2FE002886D123682021D9615A68E4
:101FE00022F0FF7222F48B3222F4FF7222F00102FF
:101FF0005A6084F8411084F8400084F8420073E786
:10200000628D009092B222854FF00073D2B2A6E7A3
:10201000628D009092B222854FF00073D2B2CCE76D
:10202000022061E72DE9F04F9B4690F8413085B0E2
:10203000202B04460F460392BDF83CA0DDF84080FB
:1020400040F0A9800E9B13B1BAF1000F06D14FF4F6
:1020500000736364012005B0BDE8F08F90F8403054
:10206000012B00F09880012580F84050FFF7DEFA40
:102070001923009006462A464FF400412046FFF7F8
:1020800098FD81460028E5D1222384F84130402381
:1020900084F842300E9B606463626063A4F82AA0F7
:1020A0000196CDF800805B46039A39462046FFF73B
:1020B00041FE10B184F84090CCE7638D9BB2FF2BBA
:1020C000364B58D9FF22009322854FF08073394652
:1020D0002046FFF754FD0096434600220421204687
:1020E000FFF767FD0028B5D12268636A526A1A704B
:1020F000636A228D01336362638D013B9BB263850A
:10210000638D013A92B29BB22285ABB1A2B900961F
:10211000434680212046FFF74CFD00289AD1638D6D
:102120009BB2FF2B2FD9FF22228500904FF08073A6
:1021300039462046FFF723FD638D9BB2002BCAD1A1
:10214000324641462046FFF727FE002882D1236809
:102150002021D9615A6822F0FF7222F48B3222F4D6
:10216000FF7222F001025A6084F8411084F84000A6
:1021700084F842006FE7628D009392B222854FF09F
:102180000073D2B2A3E7628D009092B222854FF025
:102190000073D2B2CCE702205DE700BF00240080CC
:1021A00090F84120D2B2202A10B51DD190F84030CD
:1021B000012B19D0242380F8413003681C6824F0D7
:1021C00001041C601C6824F480541C601C682143BA
:1021D0001960196841F001011960002380F841205D
:1021E00080F84030184610BD022010BD10B590F8A0
:1021F0004140E4B2202C1CD190F84030012B18D083
:10220000242380F8413003681A6822F001021A6022
:102210001A6822F4706242EA012119601A6842F0D9
:1022200001021A60002380F8414080F840301846CF
:1022300010BD022010BD2DE9F04104468AB00028EF
:1022400074D090F8BD3303F0FF021BB980F8BC23B3
:1022500002F0E0F92546032355F8100B84F8BD334E
:1022600001F0ABFC0FCD6E460FC60FCD0FC695E843
:10227000030086E8030004F1040898E80E002068D3
:1022800001F06CFC0021206801F09DFC0021224639
:10229000234604F110050126084683F83C10A3F8F4
:1022A000421001310F2983F83D6083F83F005864E4
:1022B0009864186503F11C03EFD100231F4682F8D0
:1022C000FC3101330F2B82F8FD7182F8FF71C2F8E7
:1022D0000472C2F80872C2F8107202F11C02EED148
:1022E0000FCD6E460FC60FCD0FC695E8030086E8EA
:1022F000030098E80E00206801F0A6FC012384F892
:10230000387084F8BD33636A012B02D1204600F097
:102310000FF8A36A012B02D1204600F01CF82068B8
:1023200001F02EFD00200AB0BDE8F0810120FAE79F
:10233000026803460121C0F8FC13002083F8F4036F
:10234000936943F000639361536D43F0805343F00E
:1023500003035365704702680123C0F80034936B90
:1023600043F400339363002070470000024A13686F
:1023700043F480731360704700700040024B18688C
:1023800000F4C060704700BF00700040174B1A682F
:10239000B0F5007F02F4C0621CD1B2F5007F15D009
:1023A0001A6822F4C06242F400721A60104A11687E
:1023B00032224A430F49B2FBF1F219460132586901
:1023C000400500D522B94B695B050DD4002070474C
:1023D000013AF4E7B2F5806F1FBF1A6822F4C062B9
:1023E00042F480621A60F1E70320704700700040F9
:1023F0009400002040420F00024A536843F4806377
:1024000053607047007000402DE9F041069D04467E
:102410000F461646984621688A683A4214BF012240
:102420000022B24202D10020BDE8F0816B1CF3D043
:10243000FFF7FCF8A0EB0800854201D3002DEAD19C
:10244000042384F83930E36B43F00103E363012094
:10245000BDE8F08137B50446FFF7E8F80546002CE3
:1024600049D094F83830012B47D0012384F8383014
:1024700094F8392002F0FF033AB984F83830204646
:1024800001F0DCFF41F2883323642068A168026810
:10249000236C013922F4706242EA01220260202199
:1024A000009300222B462046FFF7AEFFF0B92268CA
:1024B00065681168E36821F07F4143EA056321F014
:1024C00010010B431360A169636955680B432169CF
:1024D00043EA01430A4929400B435360136843F020
:1024E000010313600123E06384F83930002384F88A
:1024F000383003B030BD0120FBE70220F9E700BF10
:10250000FEF8E0FF37B51E4DAB6DDA00044618D576
:10251000FFF734FFB0F5007F23D1802C29D9A02C00
:102520008CBF02200120174A136823F007030343DE
:102530001360136803F00703181A18BF012003B0D3
:1025400030BDAB6D43F08053AB65AB6D03F0805392
:102550000193019BFFF712FFAB6D23F08053AB6536
:10256000D8E7802C07D808D0A4F17003584258410E
:10257000D9E70020D7E70320D5E70220D3E700BF43
:102580000010024000200240254B9A68D96812F0E2
:102590000C0205D00C2A15D101F00301012918D134
:1025A00019682048090755BFD3F894101968C1F37A
:1025B0000321C1F3031150F8210082B30C2A09D082
:1025C00000207047042A29D0082A174818BF002085
:1025D00070470020D968DA6801F00301C2F30212E3
:1025E000022902F1010205D0032912D0D968C1F3F2
:1025F000062103E0D9680D48C1F30621DB68B0FB72
:10260000F2F0C3F34163013348435B00B0FBF3F0E6
:102610007047D9680448C1F30621EFE703487047C3
:1026200000100240C069000800127A000024F40083
:102630002DE9F743054618B9012003B0BDE8F08342
:10264000A54C0368A668E768DB0606F00C0607F0F1
:1026500003073CD51EB10C2E63D1012F61D1236835
:10266000980702D5AB69002BE6D02368286A1907C2
:1026700056BFD4F8943023681B0903F0F00383425B
:102680003AD2FFF73FFF0028D6D1236843F0080372
:10269000236023682A6A23F0F003134323606368EE
:1026A000EA6923F47F4343EA02236360FFF76CFF88
:1026B000A3688A4AC3F30313D35C03F01F03D84013
:1026C000874B18600020FEF781FF0028B5D12B68EA
:1026D000D8075DD42B68990700F19C802B681807F8
:1026E00000F1D0802B68590700F1FC80AB6A002B09
:1026F00040F065810020A0E7236843F008032360D1
:10270000236823F0F003034323606368EA6923F43A
:102710007F4343EA02236360FFF7F4FE0028C5D03D
:102720008AE7AB691BB3236843F001032360FEF71C
:102730007DFF804623689A0711D5236843F008037C
:10274000236023682A6A23F0F0031343236063683D
:10275000EA6923F47F4343EA02236360B7E7FEF7A5
:1027600065FFA0EB08000228E4D9032065E7236891
:1027700023F001032360FEF759FF804623689B077F
:10278000A5D5FEF753FFA0EB08000228F6D9ECE729
:10279000082E03D00C2E08D1032F06D123689A03EC
:1027A00098D56B68002B95D146E76B68B3F5803FF1
:1027B00010D1236843F480332360FEF737FF80464F
:1027C00023689B0386D4FEF731FFA0EB0800642842
:1027D000F6D9CAE7B3F5A02F04D1236843F48023C8
:1027E0002360E6E7226822F480322260226822F425
:1027F00080222260002BE0D1FEF718FF804623687C
:1028000098037FF567AFFEF711FFA0EB080064287F
:10281000F5D9AAE7042E03D00C2E10D1022F0ED129
:102820002368590503D5EB68002B3FF405AF6368B7
:102830002A6923F0F85343EA026363604EE7EB68CA
:102840007BB1236843F480732360FEF7EFFE0746F5
:1028500023685A05EBD4FEF7E9FEC01B0228F7D91E
:1028600083E7236823F480732360FEF7DFFE0746C7
:1028700023685B057FF532AFFEF7D8FEC01B022848
:10288000F6D972E76B699BB1D4F8943043F0010339
:10289000C4F89430FEF7CAFE0746D4F894309A077D
:1028A0003FF520AFFEF7C2FEC01B0228F5D95CE75A
:1028B000D4F8943023F00103C4F89430FEF7B6FE48
:1028C0000746D4F894309B077FF50CAFFEF7AEFEB9
:1028D000C01B0228F5D948E700100240A86900088B
:1028E00094000020A36DD80029D4A36D43F0805339
:1028F000A365A36D03F080530193019B4FF0010882
:102900005D4F3B68D9051DD5AB68012B2BD1D4F8A1
:10291000903043F00103C4F89030FEF787FE41F297
:1029200088390746D4F890309B0742D5B8F1000F9C
:102930003FF4DCAEA36D23F08053A365D6E64FF0E1
:102940000008DDE73B6843F480733B60FEF76EFEF2
:1029500081463B68DA05D7D4FEF768FEA0EB090094
:102960000228F6D901E7052B06D1D4F8903043F0C0
:102970000403C4F89030CAE7D4F8902022F0010292
:10298000C4F89020D4F8902022F00402C4F89020DB
:10299000002BC2D1FEF74AFE41F288390746D4F82F
:1029A00090309807C2D5FEF741FEC01B4845F6D9C6
:1029B000DBE6FEF73BFEC01B4845B3D9D5E60C2E3F
:1029C0003FF43AAE022B236823F08073236037D1A3
:1029D000FEF72CFE0646236899012BD46A6BEB6A3E
:1029E00043EA02232A6B013A43EA0213AA6B120953
:1029F00043EA4243EA6B5208013A43EA42532A6CE3
:102A00005208013A43EA4263E360236843F080736B
:102A10002360E36843F08073E360FEF707FE05463A
:102A200023689A013FF566AEFEF700FE401B0228C0
:102A3000F6D99AE6FEF7FAFD801B0228CBD994E678
:102A4000236813F0205F02BFE36823F00303E36011
:102A5000E36823F0887323F48033E360FEF7E6FD38
:102A6000054623689B017FF545AEFEF7DFFD401B61
:102A70000228F6D979E600BF007000402DE9F04148
:102A80000E46044610B90120BDE8F081404A1368A3
:102A900003F007038B4229D32368D90731D4216877
:102AA0008A075BD43A4A136803F007039E425DD35A
:102AB00011F0040F374D64D10B0706D5AB682269BE
:102AC00023F4605343EAC203AB60FFF75DFDAB68DC
:102AD000314AC3F30313BDE8F041D35C03F01F0395
:102AE000D8402E4B18600020FEF770BD136823F00D
:102AF00007030B431360136803F007039942C2D125
:102B0000CAE76268234D032A2B681BD113F0007FAC
:102B1000B9D0AB6823F003031343AB60FEF786FD27
:102B200041F288380746AB68626803F00C03B3EBE8
:102B3000820FB4D0FEF77AFDC01B4045F3D90320C5
:102B4000BDE8F081022A02D113F4003FE0E712B998
:102B500013F0020FDCE713F4806FD9E70D4AA06889
:102B6000936823F0F003034393609BE7136823F01B
:102B7000070333431360136803F007039E4282D1B7
:102B800096E7AB68E26823F4E0631343AB6093E736
:102B90000020024000100240A869000894000020B4
:102BA000054B064A9B68C3F30223D35C044A1068B2
:102BB00003F01F03D840704700100240B8690008B6
:102BC00094000020054B064A9B68C3F3C223D35CE4
:102BD000044A106803F01F03D840704700100240F9
:102BE000B869000894000020F8B5454BDA6812F087
:102BF000030F05460E461C4600682AD0DA6802F02C
:102C0000030282423CD1002A3AD0DB686A68C3F3EF
:102C100002130133934233D1236823F0806323608E
:102C2000FEF704FD074623681A0132D4AF68002E70
:102C300036D0012E50D12269286922F4C002400802
:102C400022F4FE42013842EA072242EA405222615F
:102C500032E0022810D0032814D0012810D11B68BC
:102C60009F0738D5E3686A6823F07303013A184375
:102C700040EA0210E060CFE71B6813F4806FF1D1E7
:102C80000120F8BD1A689103ECD41B6813F4802F5F
:102C9000F5E7FEF7CBFCC01B0228C4D90320F8BD22
:102CA0002169EB6821F41F3121F4407141EA0721C9
:102CB0001B0941EA43412161236843F0806323609B
:102CC000FEF7B4FC064623681B0113D52369AA69E5
:102CD000134323610020F8BD2369686923F0C063B2
:102CE000400823F4FE43013843EA072343EA4063E4
:102CF0002361E1E7FEF79AFC801B0228E3D9CDE7C8
:102D000000100240F8B53D4BDA6812F0030F05469B
:102D10000E461C46006828D0DA6802F003028242A0
:102D20003AD1002A38D0DB686A68C3F30213013352
:102D3000934231D1236823F080532360FEF776FC61
:102D4000074623689A0030D4A868002E34D06369FF
:102D5000296923F0C063490823F4FE43013943EA9B
:102D6000002343EA4163636132E0022810D0032864
:102D700014D0012810D11B689F0738D5E3686A6812
:102D800023F07303013A184340EA0210E060D1E7F0
:102D90001B6813F4806FF1D10120F8BD1A6891030C
:102DA000ECD41B6813F4802FF5E7FEF73FFCC01B43
:102DB0000228C6D90320F8BD6269EB6822F41F32ED
:102DC00022F4407242EA00221B0942EA4342626155
:102DD000236843F080532360FEF728FC06462368EF
:102DE0009B0005D563696A69134363610020F8BDE0
:102DF000FEF71CFC801B0228F1D9DBE70010024023
:102E00002DE9F347066816F40066044624D0416EA7
:102E1000B1F5800F2CD002D8C1B101261CE0B1F56C
:102E2000000F0DD0B1F5400FF7D14D4A616ED2F8C9
:102E3000883023F440030B43C2F8883000260BE0AF
:102E4000474AD36843F48033D360EEE70430FFF79A
:102E5000CBFE06460028E8D02368D80406D5A16E2C
:102E6000B1F1807F74D008D8A9B10126354621E0A0
:102E700000212030FFF746FFEBE7B1F1007F04D0DF
:102E8000B1F1407FF1D1354609E0354AD36843F4CA
:102E90008033D360F7E7201DFFF7A6FE0546002D1F
:102EA0005CD12F4AA16ED2F8883023F040730B43D7
:102EB000C2F888302368990340F14F81284FBB6DD9
:102EC000DA0040F176814FF00008DFF89890D9F8E9
:102ED000003043F48073C9F80030FEF7A7FB824648
:102EE000D9F80030DB053FD5002D44D1D7F890301C
:102EF00013F4407315D0D4F88420934211D0D7F83E
:102F00009030D7F8902042F48032C7F89020D7F85C
:102F1000902023F4407322F48032C7F89020C7F841
:102F20009030D80709D5FEF781FB41F28839054674
:102F3000D7F89030990740F10981D7F89030D4F84C
:102F4000842023F440731343C7F89030354612E0D1
:102F5000002104F12000FFF7D5FE9FE72E46A9E7E8
:102F60000010024000700040FEF760FBA0EB0A007A
:102F70000228B5D90325B8F1000F03D0BB6D23F0AB
:102F80008053BB652368DA0708D59049A06BD1F858
:102F9000882022F003020243C1F888209F0708D549
:102FA0008A49E06BD1F8882022F00C020243C1F874
:102FB00088205E0708D58549206CD1F8882022F04A
:102FC00030020243C1F88820180708D57F49606C99
:102FD000D1F8882022F0C0020243C1F88820D90627
:102FE00008D57A49A06CD1F8882022F440720243B7
:102FF000C1F888209A0608D57449E06CD1F8882079
:1030000022F440620243C1F888209F0508D56F4929
:10301000E06DD1F8882022F440220243C1F88820D4
:103020005E0508D56949206ED1F8882022F4401247
:103030000243C1F88820580608D56449206DD1F8AC
:10304000882022F440520243C1F88820190608D58E
:103050005E49606DD1F8882022F440420243C1F8F5
:103060008820DA0508D55949A06DD1F8882022F4C6
:1030700040320243C1F888209B040FD5534AE16EC9
:10308000D2F8883023F040630B43B1F1006FC2F8EF
:10309000883064D1D36843F48013D36023681F035E
:1030A0000FD54A4A216FD2F8883023F040630B4392
:1030B000B1F1006FC2F888305CD1D36843F480135B
:1030C000D36023685E030FD5404A616FD2F8883021
:1030D00023F040630B43B1F1006FC2F8883054D144
:1030E000D36843F48013D3602368580412D537495A
:1030F000A26FD1F8883023F040531343B2F1805FC0
:10310000C1F888304CD10221201DFFF76DFD002849
:1031100018BF05462268110408D52C49E06FD1F884
:10312000883023F080430343C1F88830D30309D5A6
:10313000264AD4F88010D2F8883023F000430B439D
:10314000C2F88830284602B0BDE8F087FEF76EFA74
:10315000401B48457FF6ECAE0CE7354612E7B1F16F
:10316000806F9BD10121201DFFF73EFD002818BF75
:10317000054693E7B1F1806FA3D10121201DFFF730
:1031800033FD002818BF05469BE7B1F1806FABD136
:103190000121201DFFF728FD002818BF0546A3E7E1
:1031A000B2F1005FB6D1022104F12000FFF7AAFDC1
:1031B000ADE7BB6D43F08053BB65BB6D03F080533F
:1031C0000193019B4FF001087FE600BF0010024011
:1031D000024A136843F00403136070470010024072
:1031E00070B5044600284AD00023836290F85D3011
:1031F00003F0FF021BB980F85C2001F055F90223AF
:10320000216884F85D300B68E26823F04003B2F572
:10321000E06F0B604FF000032ED91846B2F5706FC7
:1032200018BFA362236B2BB9B2F5E06F8CBF0223EA
:1032300001232363A6686368A56933432669334382
:1032400066693343E6693343266A3343A66A3343E8
:1032500005F4007633430B60636A1A43636B2D0CED
:103260001A4305F004052A430243012300204A6063
:10327000206684F85D3070BD4FF48050D0E70120A7
:1032800070BD000003680A48DA6842F00102DA60A3
:1032900099680140062908D09A680240B2F5803F3B
:1032A0001EBF1A6842F001021A600020704700BF7A
:1032B00007000100704770477047704703681A693C
:1032C000910710B504460FD5DA6892070CD56FF058
:1032D00002021A619B6901229907027700F085803A
:1032E000FFF7E9FF0023237723681A69520710D5F7
:1032F000DA6850070DD56FF004021A619B6902224B
:1033000013F4407F2277204675D0FFF7D4FF0023C7
:10331000237723681A6911070FD5DA6812070CD5CD
:103320006FF008021A61DB6904229B0722772046AE
:1033300067D0FFF7C0FF0023237723681A69D00600
:1033400010D5DA68D1060DD56FF010021A61DB696D
:10335000082213F4407F2277204658D0FFF7ABFFB6
:103360000023237723681A69D20708D5DA68D007C3
:1033700005D56FF001021A61204600F0C5FF2368F1
:103380001A69110608D5DA68120605D56FF08002B1
:103390001A61204600F0EFF823681A69D00508D5B5
:1033A000DA68110605D56FF480721A61204600F0C4
:1033B000E3F823681A69520608D5DA68500605D57D
:1033C0006FF040021A612046FFF777FF23681A6901
:1033D000910622D5DA6892061FD56FF020022046AA
:1033E0001A61BDE8104000F0C5B8FFF763FF204642
:1033F000FFF762FF76E7FFF75DFF2046FFF75CFF10
:1034000085E7FFF757FF2046FFF756FF93E7FFF7E3
:1034100051FF2046FFF750FFA2E710BD304A036876
:10342000904212D0B0F1804F0FD0A2F5943290426A
:103430000BD002F58062904207D002F58062904284
:1034400003D002F59432904219D14A6823F07003F8
:103450001343234A90421DD0B0F1804F1AD0A2F5F9
:103460009432904216D002F58062904212D002F55A
:10347000806290420ED002F5943290420AD0194AEE
:10348000904207D002F58062904203D002F580623C
:10349000904203D1CA6823F4407313434A6923F06E
:1034A0008003134303608B68C3620B6883620C4B19
:1034B00098420FD003F5006398420BD003F54063A8
:1034C000984207D003F58063984203D003F58063E8
:1034D000984201D10B69036301234361704700BF28
:1034E000002C01400040014010B50446A0B190F806
:1034F0003D3003F0FF021BB980F83C2001F008F8D2
:10350000022384F83D302068211DFFF787FF012347
:1035100084F83D30002010BD012010BD90F83C30F3
:10352000012B30B54FF002031FD00268104D80F818
:103530003D30AA425368946803D005F50065AA425D
:1035400003D14D6823F470032B430D68896823F081
:1035500070032B4324F080045360214301239160C6
:1035600080F83D30002380F83C30184630BD00BF65
:10357000002C014070477047704700000268C16925
:10358000F8B504468368006915680343606903431E
:10359000BA480B432840034313605368E06823F4A0
:1035A000405303435360B64BA0699A421CBF236A41
:1035B0001843936823F4306303439360B14B9A42FA
:1035C00019D103F55843B04AD3F8883003F0030308
:1035D000B1F5004FD35C40F03881082B00F28F80AA
:1035E000DFE813F01A01CA00F9008D0014018D0004
:1035F0008D008D003600A54B9A4207D103F5E633C6
:10360000A34AD3F8883003F00C03E1E7A14B9A42B8
:1036100023D103F5E433D3F8883003F03003102BC3
:1036200000F0F1800BD8002B00F0F380B1F5004FD3
:103630004FF001024FF0000300F0F880A8E0202BCB
:1036400000F0C680302BF1D1B1F5004F40F0B880CA
:103650006068430803F58033C3E08F4B9A421ED164
:1036600003F5E233D3F8883003F0C003402B00F0B9
:10367000BB800AD87BB9824B9A4240F0CA80FFF7E0
:103680008FFA0023B0BB02463AE0802B00F09D8009
:10369000C02B00F0B0807A4B9A42C7D12FE07F4B0D
:1036A0009A4211D103F5E033D3F8883003F4407324
:1036B000B3F5807F00F09880DCD9B3F5007F00F08F
:1036C0008480B3F5407FE4E76D4B9A42AED103F5B9
:1036D000C833D3F8883003F44063B3F5806F00F04B
:1036E0008380C7D9B3F5006F6FD0B3F5406FD0E7D3
:1036F0006B480223626802EB4201814205D9012234
:103700000023236663661046F8BDB0EB023FF6D88F
:10371000082B2ED8DFE803F0052D1C2D242D2D2D90
:103720002700FFF73DFA62684FF4807156080027C2
:10373000E1FB0067002330463946FDF731FA0022ED
:10374000584BA0F540719942D9D82368D860D7E783
:103750005548550800230021401941F10001ECE7CC
:10376000FEF712FFDFE750080021002310F50000EC
:10377000F3E701220020E3E7FFF724FA4EE0FFF72A
:103780000FFA626800EB5203B3FBF2F39BB2002224
:10379000A3F110004FF6EF718842B0D82168CB60DA
:1037A000AEE7FFF70FFAECE76068430803F5740330
:1037B00003F51053B3FBF0F3E8E7FEF7E5FEE0E7AF
:1037C0006068430803F50043F4E72D4B9A428FD01D
:1037D000B1F5004FE8D16068430803F1F47303F5D5
:1037E0009043B3FBF0F31FE0254B9A420BD1FEF759
:1037F000CBFE042346E7224B9A427FF425AF4FF4D9
:103800000040082376E7B1F5004FD6D1FEF7BCFEA5
:1038100004E0B1F5004FB2D1FFF7C2F961684A0880
:1038200002EB4003B3FBF1F39BB20022A3F11000C3
:103830004FF6EF7188423FF662AF23F00F01206828
:10384000C3F342030B43C3605AE7082B3FF657AF5D
:1038500001A252F823F000BF7F370008A337000809
:10386000A9370008FF360008BB370008FF360008FC
:10387000FF360008FF360008C1370008F369FFEF84
:1038800000800040003801404069000800440040CA
:103890004469000800480040004C004000500040CF
:1038A0000024F400FFFC0F00000024F4436ADA0750
:1038B00010B506D50168846A4A6822F400322243B2
:1038C0004A609C0706D50168C46A4A6822F48032BF
:1038D00022434A60590706D50168046B4A6822F4FE
:1038E000802222434A601A0706D50168446B4A6861
:1038F00022F4004222434A60DC0606D50168846B4C
:103900008A6822F4805222438A60990606D50168AB
:10391000C46B8A6822F4005222438A605A060FD58B
:103920000168046C4A6822F480122243B4F5801FB7
:103930004A6005D14A68446C22F4C00222434A60BE
:103940001B0606D50268816C536823F400230B43E1
:10395000536010BD2DE9F041069D04460F46164602
:1039600098462168CA6937EA02030CBF0122002287
:10397000B24202D00020BDE8F0816B1CF2D09DB9AC
:1039800023681A6822F4D0721A609A6822F0010241
:103990009A60202384F8713084F87230002384F810
:1039A00070300320BDE8F081FDF740FEA0EB080079
:1039B0008542D6D2E4E72DE9F3411F4690F87130F5
:1039C000202B04460D4690464AD1002946D0002AB5
:1039D00044D090F87030012B42D0012380F8703031
:1039E00000234367212380F87130FDF71FFEA4F800
:1039F00050800646A4F85280B4F85220009792B244
:103A0000334652B940212046FFF7A4FF58B920237E
:103A100084F8713084F8700006E00022802120468E
:103A2000FFF798FF18B1032002B0BDE8F081A3684A
:103A30002268B3F5805F0DD123695BB935F8023B8D
:103A4000C3F308031385B4F85230013B9BB2A4F8CA
:103A50005230D1E72B7813850135F4E70120E3E7F5
:103A60000220E1E773B5044600264667FDF7DEFD58
:103A700023681B681A07054617D423681B685B0771
:103A80000AD56FF07E43009300222B464FF480014D
:103A90002046FFF75FFFA0B92023002084F8713093
:103AA00084F8700084F872300CE06FF07E4300936D
:103AB000324603464FF400112046FFF74BFF002823
:103AC000DBD0032002B070BD10B5044660B390F89F
:103AD000713003F0FF021BB980F8702000F036FD52
:103AE0002268242384F87130136823F001031360E3
:103AF0002046FFF743FD012816D0636A13B1204624
:103B0000FFF7D4FE23685A6822F490425A609A68FC
:103B100022F02A029A601A6842F0010220461A60D6
:103B2000BDE81040FFF79EBF012010BD0A4B013BCE
:103B300001D1032070470269002AF8DA0369064AB6
:103B400043F001030361013AF3D0036913F0010369
:103B5000F9D11846704700BF410D030084B038B555
:103B600005AD85E80E000A9B012B04461BD1836B33
:103B700023F480338363C36823F4840323F0400376
:103B8000C360C36823F44013C360119B012B02BFC1
:103B9000C36843F48013C360FFF7C8FFBDE8384033
:103BA000002004B07047C36843F04003C360FFF7D0
:103BB000BDFF4FF48033A363F0E7836823F0010374
:103BC00083600020704708B5C368012923F0C04313
:103BD000C36008D1C36843F00053C3603220FDF7CF
:103BE0002BFD002008BD19B9C36843F08043F4E7FA
:103BF000012008BD890141F02001064A0161013A16
:103C000005D0036913F02003F9D11846704703204B
:103C1000704700BF410D03001023064A0361013ABB
:103C200005D0036913F01003F9D11846704703203B
:103C3000704700BF410D0300D0F800381943C0F8A9
:103C4000001800207047000084B02DE9F0410446C0
:103C500007A880E80E000023119F8846194603F14B
:103C6000400204EB820201330F2B5160F7D1A36BAA
:103C700043F40013A3635FB9A36B23F40013A3639E
:103C8000236843F040032360236843F080032360EC
:103C90000025C4F8005ED4F80038C4F800380321C9
:103CA0002046FFF7C9FF04F5006610212046FFF704
:103CB000A1FF2046FFF7B0FF35612B46756129460D
:103CC000F56104F510624FF090404FF000654FF63B
:103CD0007F3E43452FD1002104F5306208464FF066
:103CE00090454FF0006E4FF67F3C8B4234D13369E4
:103CF00023F4807333610023A3616FF08043636119
:103D0000A36943F01003A361A2691C4B1343A36191
:103D10000D9B1BB1A36943F00803A361012F01BFF1
:103D2000A36943F0804343F00403A361BDE8F0417D
:103D3000002004B07047D2F800C0BCF1000F09DACF
:103D400033B9156011610133C2F808E02032C0E7D1
:103D50001060F7E71160F5E7D2F80080B8F1000FC6
:103D60000ADA39B9C2F800E010610131C2F808C0BE
:103D70002032BAE71560F7E71060F5E700383C80BD
:103D800008B5D0F8043843F00203C0F80438032023
:103D9000FDF752FC002008BDF0B5B9B01424442250
:103DA000002105A800F01DFD22460021684600F014
:103DB00018FD0021882216A800F013FDFEF7D6FAA0
:103DC000224AD2F8903023F01803C2F890306023D2
:103DD0000125022605940D9300242823072705A812
:103DE000129307950B950C940F96109511951397B8
:103DF00014961596FEF71CFC0F2204210323684637
:103E00008DE80C00029403940494FEF737FE104BE7
:103E100016934FF0806331931823199316A84FF42B
:103E200080131D93249426942B94369417951895FB
:103E30001A971B961C96FEF7E3FF4FF40070FEF7EF
:103E4000A5FAFFF7C5F939B0F0BD00BF0010024078
:103E5000852001002DE9F04F95B0FDF7CFFBFFF76E
:103E60009BFF1422002107A800F0BBFCAC4BAD481F
:103E7000DA6CDFF8E8A242F01002DA64DA6C02F0E1
:103E800010020292029ADA6C42F00402DA64DA6CEE
:103E900002F004020392039ADA6C42F00102DA643F
:103EA000DA6C02F001020492049ADA6C42F0020227
:103EB000DA64DA6C02F002020592059ADA6C42F0DA
:103EC0000802DA64DB6C03F008030693002240F278
:103ED0001511069BFDF73CFE002248F204114FF03D
:103EE0009040FDF735FE00224FF234018E48FDF779
:103EF0002FFE002243F281018C48FDF729FE0022AB
:103F00004FF410718A480024FDF722FE012540F28B
:103F1000151307A983480793089509940A94FDF798
:103F2000A1FC6A2307A97F480793CDF820A0099434
:103F3000FDF798FC4FF40053079307A97D4B7C488D
:103F400008934FF00B0B0994FDF78CFC3F2307A956
:103F500077480793022703264FF00809CDF820B0D1
:103F60000994FDF77FFC07A94FF09040079609944C
:103F70000A96CDF82C900897FDF774FC48F20413CC
:103F800007A94FF090400793089509940A94FDF70C
:103F900069FC07A94FF09040CDF81C9009940A9451
:103FA0000B954FF010080897FDF75CFC07A94FF040
:103FB0009040CDF820B00994CDF81C80FDF752FC5C
:103FC000E023079307A905234FF090400B9301933B
:103FD00009940A960897FDF745FC07A952480795EA
:103FE000CDF820A00994FDF73DFC07A94E48CDF877
:103FF00020B009940797FDF735FC4FF2340207A96A
:1040000049480792089509940A94FDF72BFC4CF651
:10401000044207A945480792CDF820A00994FDF76E
:1040200021FC43F2810207A94048079208950994B0
:104030000A94FDF717FC4FF4107207A93C48079249
:10404000089509940A94FDF70DFC4FF4C07207A976
:1040500037480792CDF820A00994FDF703FC019B97
:104060003248099407A90A960B934FF0070A07975D
:104070000897FDF7F7FB782307A92C4807930994C5
:104080000A964FF4407B0897CDF82CA0FDF7EAFB89
:1040900007A912230A9624480893042609950B962B
:1040A000CDF81CB0FDF7DEFB2348244B036006620D
:1040B0004FF48073224E0571846004614461836112
:1040C000C46144628562C4620463C760FDF756FB45
:1040D0001C4A1D4BB460304686E80C00F560346124
:1040E0007461B461F4613462FDF77BFE21463046B1
:1040F000FEF756F821463046FEF778F81349144883
:10410000FF2380E80A008560C46005614461846122
:10411000FEF7A0F90F48104B84604FF482751FE042
:10412000001002400010004800040048000C004845
:104130000008004800002110980300202060014082
:104140005408002000580040EC9C9010001000A083
:10415000C4090020A4080020003C00400000111009
:1041600080E828004FF40073584D04614461836176
:10417000C4610462446284620463C0F83490C0F88D
:104180000CB0C0F82CA0FFF72BF8514BAC604FF4EB
:10419000165685E8480028460C26EC602C616E61B6
:1041A000AC61EC612C626C62FFF78EFC49484A4BB3
:1041B00084604FF4E13E80E80840C46004614661D9
:1041C0008461C46104624462FFF77EFC4348444E4C
:1041D00044614FF0060C4FF0A04380E80810C46122
:1041E0000462446284620463C462C7608761FEF74C
:1041F00022F83C4BB46040F2E73986E808023046CA
:1042000049F64043F360B461079408940994FFF7BA
:104210006BF907A9304607940994FFF77FF9FCF77B
:1042200051FFFCF729FFFCF769FFFCF7FDFEFCF7E7
:104230000FFFFCF73DFF3046FFF724F841F28833CB
:10424000424628462849294C294EFFF7B4FB2A68E4
:10425000284D136843F0200313602378312B18D1C5
:10426000FCF744FF244B10EE100A83ED000AFCF724
:104270006BF90B462149024607A800F027FF41F2DF
:10428000883382B207A91148FFF795FB00232370FA
:10429000E3E7322B0CD1FCF703FF194B10EE100AA9
:1042A00083ED000AFCF750F90B4602461549E3E797
:1042B000332BD2D1FCF734FF10EE100A86ED000A42
:1042C000FCF742F90B4602462946D5E708090020CB
:1042D00000380140D4030020004800404C04002076
:1042E000800900200010004051690008080A0020E1
:1042F000C009002090690008D0030020626900080E
:10430000A00800207A6900080020FCF731BE0000F8
:104310000A4B1A6E42F001021A661A6E82B002F05F
:1043200001020092009A9A6D42F080529A659B6D4C
:1043300003F080530193019B02B0704700100240CC
:1043400000B589B01422002103A800F04AFA134BEB
:104350001B6803BB03F1804303F5043303A91A6E02
:104360000F4842F080721A661A6E02F08072019253
:10437000019ADA6C42F01002DA64DB6C03F010038D
:104380000293029B4FF420730393022304930623AA
:104390000793FDF767FA09B05DF804FBC00200203F
:1043A0000010004810B5044688B01422002103A86C
:1043B00000F017FA2268134B9A4221D1124C13488D
:1043C000E36C43F00203E364E36C03F00203019344
:1043D000019B4FF44063039312230493012305933D
:1043E0000323069303A904230793FDF73BFAA36D68
:1043F00043F48003A365A36D03F480030293029B3F
:1044000008B010BD005800400010024000040048F1
:104410000268074B9A4209D1064A0748936D23F474
:10442000800393654FF44061FDF7F8BA704700BF11
:1044300000580040001002400004004810B5044637
:1044400088B01422002103A800F0CBF92268144B95
:104450009A4222D103F1204303F5003303A91A6DD8
:10446000104842F480721A651A6D02F4807201924B
:10447000019ADA6C42F01002DA64DB6C03F010038C
:104480000293029B4FF47C43039302230493032380
:1044900006930A230793FDF7E5F908B010BD00BFA6
:1044A000001000A00010004810B5044688B0142287
:1044B000002103A800F095F92268134B9A4220D1FD
:1044C00003F5EA3303A99A6D104842F400429A6555
:1044D0009A6D02F400420192019ADA6C42F00402F1
:1044E000DA64DB6C03F004030293029B4FF4E053A5
:1044F0000393022304930323069306230793FDF7F4
:10450000B1F908B010BD00BF003C004000080048F1
:1045100007B50D4B02689A4212D103F500333620DD
:104520009A6D42F010029A659B6D03F0100301939F
:1045300000220121019BFDF79FF83620FDF7D0F8FE
:1045400003B05DF804FB00BF0010004010B514225A
:104550008AB0044600210DEB020000F042F9236806
:10456000274A934228D1274B27481A6E42F48042AB
:104570001A661A6E02F480420192019ADA6C42F0D5
:104580000202DA64DB6C03F002030293029BC02395
:10459000059303230224089305A90723099306948E
:1045A000FDF760F9252000222146FDF765F825205A
:1045B000FDF796F80AB010BD144A9342FAD1114B98
:1045C00013489A6D42F480229A659A6D02F4802213
:1045D0000392039ADA6C42F00802DA64DB6C03F0AF
:1045E00008030493049B4FF440730593022306933E
:1045F0000323089305A907230993FDF733F9D9E7A6
:10460000003801400010024000040048004800400B
:10461000000C004810B5044688B01422002103A8FD
:1046200000F0DFF82368B3F1A04F3CD1204CE36CDD
:1046300043F00103E364E36C03F001030093009B88
:1046400003A94FF400734FF090400393FDF70AF96C
:104650004FF4E053039302230493002305930323B1
:10466000069303A90A234FF090400793FDF7FAF849
:10467000E36C43F48053E364E36C03F480530193ED
:10468000019BA36DDB0010D4A36D43F08053A365A1
:10469000A36D03F080530293029BFDF7ADFEA36D63
:1046A00023F08053A36508B010BDFDF7A5FEFAE71F
:1046B000001002407047FEE7FEE7FEE7FEE77047A6
:1046C00070477047FCF7AABF024B9A8C024B1A70D6
:1046D000704700BF00380140080A00200148FEF77B
:1046E000EDBD00BF800900200F49D1F8883043F4A8
:1046F0007003C1F888300D4B1A68002042F00102A7
:104700001A6098601A6822F0A85222F410221A60E7
:104710004FF48052DA601A6822F480221A6098619D
:104720004FF000638B60704700ED00E00010024026
:10473000DFF834D0002103E00C4B5B5843500431C8
:104740000B480C4B42189A42F6D30B4A02E0002366
:1047500042F8043B094B9A42F9D3FFF7C5FF00F03A
:1047600011F8FFF777FBFEE700800120606C00087E
:10477000000000206802002068020020100A0020CB
:10478000FEE7000070B50D4E0D4CA41BA4100025D3
:10479000A54209D10B4E0C4C02F090F8A41BA410BA
:1047A0000025A54205D170BD56F825309847013542
:1047B000EEE756F8253098470135F2E7586C0008C7
:1047C000586C0008586C00085C6C000810B5431E5B
:1047D0000A44914200D110BD11F8014B03F8014F7A
:1047E000F7E702440346934200D1704703F8011BE8
:1047F000F9E72DE9FF4755EC104B0D9FDDF830A090
:10480000002D0E4691461946B8BF22462B4627F08A
:104810002007BBBF05F100431D4600232D23B8BF71
:104820001446462F0B7004D0452F00D101360221CB
:1048300000E0032103AB019302AB009332465346E1
:1048400045EC104B00F0F4FC472F804602D119F0E4
:10485000010F26D0462F08EB060911D198F8003039
:10486000302B0AD10022002320462946FCF728F9E4
:1048700018B9C6F10106CAF80060DAF800309944A8
:104880000022002320462946FCF71AF938B93022C5
:10489000039B994505D9591C03911A70F8E7CDF887
:1048A0000C90039B0E9AA3EB08034046136004B0E0
:1048B000BDE8F087F7B503460029B8BF494203F8C1
:1048C000022BB4BF2D222B220929427020DD0DF1CD
:1048D000070217460A2691FBF6F506FB1511303143
:1048E000092D02F8011C02F1FF34294609DC3031A0
:1048F000023A04F8011CBA421C4604D3201A03B041
:10490000F0BD2246E7E712F8011B03F8011BF2E7AE
:1049100030221C46114404F8022B5970EEE70000C7
:104920002DE9F04F8DB00C46DDF8588016461F4635
:10493000054601F04BFA036804931846FBF748FC60
:1049400000230A93D8F800300590073323F00703BB
:1049500003F1080294F818A0D4F800B0C8F80020B9
:10496000D3E90023C4E91223D4E9128929F00043D2
:104970000793CDF818804FF0FF32A54BDDE9060113
:10498000FCF7D0F8002840F0FB814FF0FF32A04B3D
:10499000DDE90601FCF7A8F8002840F0F1810022CB
:1049A000002340464946FCF795F810B12D2384F8C2
:1049B0004330984B984ABAF1470F8CBF90469846BF
:1049C00003232BF00402236122604FF000090097BB
:1049D00033460BAA2146284600F0E2F9013040F0A8
:1049E00093804FF0FF300DB0BDE8F08F61684B1C35
:1049F0004BF480623FD106236360002303930AAB2C
:104A0000029309AB009349EC108B0DF12303226054
:104A1000CDF804A061682846FFF7EBFE0AF0DF033B
:104A2000472B804609D1099BD81C02DB6268934260
:104A300057DDAAF1020A5FFA8AFABAF1650F0999FD
:104A400034D80139524604F150000991FFF732FF82
:104A50000A9A8318012A8146236102DC2268D10761
:104A600001D5013323619DF82330002BAFD02D23D6
:104A700084F84330ABE7BAF1670F02D0BAF1470FC1
:104A8000BBD189B1002303930AAB029309AB009316
:104A900049EC108B2260CDF804A00DF123032846C9
:104AA000FFF7A7FE8046BEE70123A5E7BAF1660F30
:104AB00019D1002963680CDD216113B92268D2077E
:104AC00002D501330B442361099BA3654FF0000914
:104AD000C9E713B92268D00701D50233F3E70123F0
:104AE000F1E74FF0670A099B0A9A934205DB2268B7
:104AF0002361D107E8D50133E5E7002BD4BFC3F12B
:104B0000020301231344DEE723685A0507D423690F
:104B1000424631462846B84701302BD161E7BAF109
:104B2000650F40F2E28000220023D4E91201FBF776
:104B3000C7FF00283CD00123384A31462846B847F1
:104B400001303FF44EAF0A9B099A9A4202DB236878
:104B5000D8070FD5059B049A31462846B84701303F
:104B60003FF43FAF4FF0000804F11A090A9B013BE4
:104B7000984512DB23689B0709D54FF0000804F124
:104B80001909E3680B9A9B1A9845C0F2EE80E06819
:104B90000B9B9842B8BF184625E701234A46314689
:104BA0002846B84701303FF41CAF08F10108DDE7A3
:104BB000099B002B34DC0123184A31462846B847AC
:104BC00001303FF40EAF099B23B90A9B13B9236848
:104BD000D907CFD5059B049A31462846B8470130FE
:104BE0003FF4FFAE4FF0000904F11A0A099B5B4243
:104BF000994501DB0A9B8BE7012352463146284643
:104C0000B84701303FF4EDAE09F10109EEE700BF0E
:104C1000FFFFEF7FF0690008F4690008006A0008F0
:104C20000A9AA36D9A42A8BF1A46002A914638DC18
:104C300004F11A034FF0000B29EAE9790693D4F83E
:104C400058A0AAEB09039B4533DB0A9B099A9A42B9
:104C50003ADB2368DA0737D40A9B0999A3EB0A02E7
:104C6000A3EB01099145A8BF9146B9F1000F33DCD0
:104C70004FF0000829EAE97904F11A0A099A0A9B17
:104C80009B1AA3EB09039845BFF674AF0123524664
:104C900031462846B84701303FF4A3AE08F1010879
:104CA000ECE71346314642462846B8470130BFD1AB
:104CB00097E60123069A31462846B84701303FF46B
:104CC00090AE0BF1010BBAE7059B049A31462846DA
:104CD000B8470130C0D184E64B4608EB0A023146A2
:104CE0002846B8470130C3D17BE60A9A012A01DC85
:104CF000DB0737D50123424631462846B847013005
:104D00003FF46FAE059B049A31462846B847013000
:104D10003FF467AE00220023D4E91201FBF7D0FE76
:104D200058B14FF0000804F11A0A0A9B013B98455C
:104D30000DDB4B4604F15002EBE60A9B08F1010241
:104D4000013B31462846B8470130F2D149E60123FC
:104D5000524631462846B84701303FF442AE08F18A
:104D60000108E2E701234246EBE701234A463146C8
:104D70002846B84701303FF434AE08F1010800E797
:104D800042464B4640464946FBF7CCFE00283FF4DE
:104D90002DAE014B014A0EE6F8690008FC690008D7
:104DA0002DE9F04791461F468A680B69DDF820809F
:104DB0009342B8BF1346C9F8003091F84320064625
:104DC0000C4612B10133C9F800302368990642BF7E
:104DD000D9F800300233C9F80030256815F006050F
:104DE00007D104F1190AE368D9F800209B1A9D4203
:104DF00029DB94F843302268003318BF0123920660
:104E00002ED404F1430239463046C047013021D048
:104E10002368E568D9F8002003F00603042B08BFD7
:104E2000AD1AA36822690CBF25EAE57500259342F7
:104E3000C4BF9B1AED184FF000091A344D451BD121
:104E40000020BDE8F0870123524639463046C0476E
:104E5000013003D14FF0FF30BDE8F0870135C2E7E4
:104E6000E1185A1C302081F84300224494F8451080
:104E700082F843100233C4E7012322463946304604
:104E8000C0470130E6D009F10109D7E72DE9F04329
:104E900017460A7E85B06E2A984606460C460C9B3D
:104EA00001F1430E00F0BC801AD8632A2ED00AD834
:104EB000002A00F0C880582A00F08A8004F14205D8
:104EC00084F842202AE0642A01D0692AF6D12168B8
:104ED0001A6811F0800F23D0111D1960136827E0A4
:104EE000732A00F0B48008D86F2A2AD0702AE5D13E
:104EF0000A6842F020020A6003E0752A21D0782A6D
:104F0000DCD1782284F845206E4964E01A6801F10A
:104F10004205111D1960136884F842300123A3E093
:104F200011F0400F02F104011960D7D0B2F900303E
:104F3000002B03DA2D225B4284F8432062490A22C7
:104F400017E02068196810F0800F03D0081D186062
:104F50000B6806E010F0400F01F104001860F7D074
:104F60000B8859496F2A14BF0A220822002084F8AE
:104F700043006568A560002DC0F29C80206820F089
:104F800004002060002B3FD1002D40F09580754635
:104F9000082A0BD12368DA0708D5236962689A4288
:104FA000DEBF302305F8013C05F1FF35AEEB05030C
:104FB0002361CDF800803B4603AA21463046FFF727
:104FC000EFFE013055D14FF0FF3005B0BDE8F08362
:104FD00081F845203C492268186812F0800F00F1E2
:104FE00004051D6001D0036802E05506FBD5038867
:104FF000D00744BF42F0200222601BB9226822F091
:10500000200222601022B1E77546B3FBF2F002FBEA
:105010001033CB5C05F8013D03460028F5D1B7E716
:1050200008681A68496910F0800F04D0101D1860D4
:105030001368196007E010F0400F02F104001860D7
:105040001368F6D01980002323617546B1E71A680A
:10505000111D19601568626800212846FBF7C0F829
:1050600008B1401B606063682361002384F843300B
:105070009FE723692A4639463046C0470130A2D00F
:1050800023689B0707D5002504F11909E368039AF3
:105090009B1A9D4205DBE068039B9842B8BF184607
:1050A00093E701234A4639463046C04701308AD04B
:1050B0000135EBE7002BA7D10B7884F8423004F1DF
:1050C000420565E7136A0008026A00080EB400B5DD
:1050D0009CB04FF402711DABADF814100290069015
:1050E0006FF000410A48049107914FF6FF7153F8A1
:1050F000042BADF816100068019302A901F062FAC2
:10510000029B00221A701CB05DF804EB03B07047DC
:10511000980000202DE9F74F03690C699C428046F6
:1051200000F38280013C01F114074FEA840E00F184
:10513000140657F8245056F8240006EB0E030135E8
:1051400007EB0E090193B0FBF5F595B34FF0000A9C
:105150003846B446D34650F8042B93B205FB03A35C
:105160004FEA134A9BB2ABEB0303120CBCF800B03E
:1051700005FB02A213FA8BF34FEA124A1FFA82FBD5
:10518000DCF80020CBEB124202EB23429BB243EA55
:10519000024381454FEA224B4CF8043BDBD256F8E0
:1051A0000E3033B9019B043B9E421A4630D3C8F8F7
:1051B0001040404601F029F8002825DB0135304633
:1051C0004FF0000E57F8042BD0F800C093B2AEEBAE
:1051D0000303120C13FA8CF3C2EB1C4202EB2342C2
:1051E0009BB243EA0243B9454FEA224E40F8043BE2
:1051F000E8D256F8242006EB84032AB9043B9E42E9
:105200001A460BD3C8F81040284603B0BDE8F08F0B
:105210001268043B002ACAD1013CC5E71268043B6E
:10522000002AEFD1013CEAE70020EEE70000000091
:105230002DE9F04F57EC106B97B0CDE90067466A47
:10524000079104460A920F93209D3EB9102000F06A
:10525000CBFD6062466086600660C660636A19685E
:1052600051B15A684A60012393408B60204600F098
:10527000F7FD636A00221A60019B002BBFBF012368
:105280002B60019B23F00043B2BF019300232B60EE
:10529000DDF80480A84B33EA08031BD10F9A42F2D1
:1052A0000F731360009B23B9C8F31300002800F0AC
:1052B0007885219B53B9A14B21E0A14B0293083380
:1052C000219A1360029817B0BDE8F08F9B4B0293B0
:1052D0000333F5E7DDE90067002200233046394655
:1052E000FBF7EEFB814660B10F9A01231360219B0F
:1052F000002B00F05385934B219A1360013B0293DE
:10530000E0E714AA15A947EC106B204600F0F5FF62
:10531000C8F30A558246002D7ED0C7F3130343F02D
:105320007F51304641F44011A5F2FF35CDF8489049
:105330000022854BFAF7A8FF79A3D3E90023FBF7F6
:1053400057F979A3D3E90023FAF7A0FF06462846C8
:105350000F46FBF7E7F876A3D3E90023FBF748F9FC
:1053600002460B4630463946FAF790FF06460F468E
:10537000FBF7EEFB00228346002330463946FBF75D
:10538000A9FB58B15846FBF7CDF802460B4630460C
:105390003946FBF795FB08B90BF1FF3BBBF1160F44
:1053A00059D86A4901EBCB01DDE90023D1E90001BD
:1053B000FBF7AEFB002850D00BF1FF3B00230E9310
:1053C000149B5D1B6B1E069345BFC5F1010305933E
:1053D000002300234CBF06930593BBF1000F3EDB77
:1053E000069BCDF82CB05B44069300230893079BE3
:1053F000092B00F2AF80052BC4BF043B0793079B2A
:10540000A3F10203CCBF00260126032B00F2AE80DD
:10541000DFE803F082842F77159B149D1D4405F26D
:105420003243202B11DD009A05F21240C3F14003F4
:1054300022FA00F008FA03F31843FBF763F801239C
:10544000A1F1F871013D129372E7C3F12000009BB6
:1054500003FA00F0F1E70123B1E70E90B0E7059BF6
:10546000A3EB0B030593CBF10003089300230B93ED
:10547000BDE7012309930A9B002B7ADD0493039374
:10548000656A00226A60042101F114029A4275D90A
:105490006968204600F0B0FC636A28601B680293CC
:1054A000039B0E2B00F2E580002E00F0E2809DEDC4
:1054B000007BBBF1000F8DED0C7B74DD234A0BF0FC
:1054C0000F034FEA2B1602EBC303F006D3E9008962
:1054D00059D51F4B51EC170BD3E90823FBF7B2F951
:1054E000CDE9000106F00F060325194F002E4CD11F
:1054F00042464B46DDE90001FBF7A4F9CDE9000186
:105500006AE0012309930A9B5B4404930133012B56
:105510000393B8BF0123B3E70023ABE70023F1E710
:1055200061436F63A787D23FB3C8608B288AC63FA9
:10553000FB799F501344D33F0000F07F2D6A000891
:10554000246A0008016A00080000F83F606A000849
:10555000386A000801260023079309964FF0FF33AD
:1055600004930393002212230A9289E701230993EB
:10557000F4E70123049303931A46F5E76A680132BE
:105580006A60490080E70225AFE7F10708D5404689
:105590004946D7E90023FBF72BF8013580468946B9
:1055A00076100837A2E700F09D80CBF100069F4BF4
:1055B0009F4F06F00F0203EBC203D3E90023DDE99E
:1055C0000C01FBF715F8CDE9000136110023022587
:1055D000002E7CD1002B91D10E9B002B00F08480FB
:1055E000DDE900890022934B40464946FBF772FAF9
:1055F000002879D0039B002B76D0049B002B34DD50
:1056000000228D4B40464946FAF7F2FFCDE90001F2
:10561000049E0BF1FF3701352846FAF783FFDDE9D9
:105620000023FAF7E5FF0022844BFAF72FFE8046AD
:10563000A1F15079002E5AD10022814BDDE9000101
:10564000FAF722FE42464B46CDE90001FBF760FA2D
:10565000002840F09B82424609F10043DDE9000149
:10566000FBF738FA002840F08F82DDE90C23CDE902
:105670000023159B002BC0F25081BBF10E0F00F3ED
:105680004C816A4B03EBCB03D3E900890A9B002BC7
:1056900080F2DA80039B002B00F3D68040F0738207
:1056A0000022674B40464946FAF7A2FFDDE9002396
:1056B000FBF724FA039E3746002840F04A82029BFB
:1056C000029A5D1C312313700BF1010B45E2F207C6
:1056D00005D5D7E90023FAF78BFF013501237610B2
:1056E000083775E7022577E75F46039E94E7029A3D
:1056F0004E4B32441392099A711E002A48D003EB94
:10570000C103D3E9002300204E49FBF79BF8424632
:105710004B46FAF7B9FD029D80468946DDE9000156
:10572000FBF716FA0646FAF7FDFE02460B46DDE9E0
:105730000001FAF7A9FD303605F8016B42464B46E9
:10574000CDE90001FBF7C6F9002865D1DDE90023AA
:1057500000203849FAF798FD42464B46FBF7BAF964
:10576000002840F0BA80139B9D423FF47EAF002298
:10577000314B40464946FAF73BFF002280468946B6
:105780002D4BDDE90001FAF733FFCDE90001C5E754
:1057900003EBC10142464B46D1E90001FAF728FF6D
:1057A000CDE91001029DDDE90001FBF7D1F90646C4
:1057B000FAF7B8FE303602460B46DDE90001FAF78B
:1057C00063FD05F8016B139BAB42804689464FF0A1
:1057D000000225D11B4BDDE91001FAF757FD024607
:1057E0000B4640464946FBF793F9002875D1DDE9A1
:1057F000102300201349FAF747FD02460B464046A6
:105800004946FBF767F900283FF42FAF15F8013C34
:10581000302B05F1FF3201D0BB464DE01546F5E7D0
:10582000054BFAF7E5FECDE90001BCE7606A000828
:10583000386A00080000F03F0000244000001C40CF
:10584000000014400000E03FDDE90067029D424691
:105850004B4630463946FAF7F5FFFBF779F90090E9
:10586000FAF760FE42464B46FAF7C2FE02460B4686
:1058700030463946FAF708FD009E039F303605F89A
:10588000016B029EAE1BB74202460B4638D1FAF7B7
:10589000FDFC06460F4602460B4640464946FBF7CE
:1058A00019F9C8B932463B4640464946FBF708F964
:1058B00010B1009BDB070FD45146204600F0D0FA10
:1058C00000230F9A2B700BF101031360219B002B17
:1058D0003FF4F8AC1D60F5E45F4615F8012C392A59
:1058E00005F1FF3306D1029A9A4207D13023137093
:1058F000013713461A7801321A708DE71D46ECE71E
:105900000022A44BFAF774FE0022002306460F463D
:10591000FBF7D6F800289AD0CEE7099A002A00F0C3
:10592000CD80079A012A00F3AF80129A002A00F076
:10593000A78003F23343089E059D059A1A440592F9
:10594000069A01211A442046069200F029FB0746D8
:10595000002D0CDD069B002B09DDAB42059AA8BF8C
:105960002B46D21A0592069AED1AD31A0693089B73
:10597000F3B1099B002B00F0A580002E10DD394605
:105980003246204600F0A2FB52460146074620461A
:1059900000F00FFB51468046204600F061FAC246F7
:1059A000089B9A1B04D05146204600F08FFB82468C
:1059B0000121204600F0F4FA0B9B002B064640F331
:1059C00083801A460146204600F080FB079B012B8E
:1059D00006467CDD4FF00008336906EB8303186947
:1059E00000F090FAC0F12000069B184410F01F0050
:1059F00000F09680C0F12003042B40F38780059BC4
:105A0000C0F11C0003440593069B05440344069320
:105A1000059B002B05DD51461A46204600F0A4FBED
:105A20008246069B002B05DD31461A46204600F0D3
:105A30009BFB06460E9B002B74D03146504600F06F
:105A4000E4FB00286EDA002351460A22204600F0CB
:105A50001EFA099B0BF1FF3B8246002B00F0A88148
:105A6000002339460A22204600F011FA049B002B3D
:105A7000074600F3C880079B022B40F3C48059E01F
:105A8000149BC3F1360356E7039B5E1E089BB3428B
:105A9000BFBF089B0896F21A0B9BB6BF9B189E1BB4
:105AA0000B93039BB8BF0026002BB9BF059B039A3D
:105AB000059D039BBCBF9D1A00233EE7089E059DE4
:105AC000099F45E7089A6EE7079B012B19DC009BAD
:105AD000BBB9019BC3F313039BB9019B23F00043A4
